:100000000C9434000C94A8000C94A8000C94A80044
:100010000C94A8000C94A8000C94A8000C94A800C0
:100020000C94A8000C94A8000C94A8000C94A800B0
:100030000C94A8000C94A8000C94A8000C94A800A0
:100040000C94A8000C94A8000C94A8000C94A80090
:100050000C94A8000C94A8000C94A8000C94A80080
:100060000C94A8000C94A80011241FBECFEFD8E078
:10007000DEBFCDBF0E9463000C943E00F894FFCF1A
:1000800095B1906295B940E050E016C095B1907F6F
:1000900095B995B1982B95B995B1906195B920E036
:1000A00030E002C02F5F3F4F2F3F3105DCF395B1A9
:1000B0009F7E95B94F5F5F4F423051053CF385B14C
:0600C0008F7D85B9089553
:1000C6008FEF84B987B988EF85B98FEA88B90E941E
:1000D60093000E949A0087E80E947C0087E80E94AD
:1000E6007C000E94A10084E10E94400080E090E034
:0200F60008956B
:1000F80095B1907F95B995B1892B85B985B1806106
:1001080085B985B18F7D85B980E090E001C0019601
:0E0118008F3F9105E4F385B18F7E85B9089580
:0E01260082E00E947C0088E00E947C00089528
:0E01340080E00E947C008CE00E947C00089518
:0E01420080E00E947C008FE00E947C00089507
:040150000C9400000B
:00000001FF
